:030000000220BF1C
:0C20BF00787FE4F6D8FD75816B022106E5
:100026000434C404C43C20100FE808082818000053
:1000360010080601828C40300C030C1060C0400092
:10004600020202EEAAAAAAABAAAAAAEA020202001F
:10005600807EAAFE009E423A429E807E127EC000AC
:100066002064249494BF8080809FA4E4A422380056
:10007600000000FF0A0A0A0A0A4A8A7F00000000F6
:100086004042CC0000E222222AF22A2622F0200058
:1000960000007F2010FF090909FF0949897F000038
:1000A600F05C643612730101731236440C38E000BA
:1000B6000F382060404E48484844404060301F009A
:1000C6000080808080808080808C98B020C0000076
:1000D600000000000000000000180C0602010000ED
:1000E6002064249494BF80809FA4A4A22238000098
:1000F600000000FF0A0A0A0A0A4A8A7F0000000076
:100106000000F8494A4C48F8484C4A49F8000000B3
:1001160010101312121212FF1212121213101000E4
:10012600404042CC001092929292921202FE00003F
:100136000000007F20100F0808080F40807F000095
:100146001010D0FF9014E4AFA4A4A4AFE404000000
:10015600040300FF00894B2A1A0E1A2A4B888000D6
:10016600101090909090901010FF10101116100023
:10017600002060203F10101000030C102040F800F3
:10018600404042CC00504EC8487FC8484840000016
:100196000040201F20504C4340404F50505C4000D0
:1001A6001010FF100082864A52A2524A86808000B2
:1001B60042827F010010121212FF1212121000006A
:1001C60000808080800000000080C0E0E0381808D1
:1001D60000000101071E0C0E0703010000000000CD
:1001E6000000E030080C04060604846C18F0800059
:1001F60000000F183123266446436120301807009B
:1002060000F01884060203032162C2860C18F0006F
:10021600001F302121414141454343414060390F90
:100226000038E40404040404FC0404040404FC008C
:100236000000031E302040403F2030101C06030003
:100246000080800000000080C0E0F0783C1C0C00BC
:100256000043773F3C3E7767430100000000000003
:100266000008488808C83800901010FF10101000C9
:100276000020100C030418000043807F00000000DB
:10028600000000FF080808404040FF2022AC200084
:10029600007F212121217F80402017182641F00070
:1002A600404042CC00504EC8487FC84848400000F5
:1002B6000040201F20504C4340404F50505C4000AF
:1002C6001010FF100082864A52A2524A8680800091
:1002D60042827F010010121212FF12121210000049
:1002E60040484848FF484800C4444444FC000000D5
:1002F60080601F207F4444404F505050505C400067
:100306000000C04040407F48484848C808080000F0
:1003160080403704041464041464040710E00000E9
:10032600000038E8485EEBF1F1ED4F44E4AC3800EC
:10033600000003031292BAFFFFBA9A1A02030000E2
:1003460000000000C0F00000C030E08060F0000057
:1003560000601C0300030603000007030001FE0003
:1003660080A4A4C862361410173066C00C6420003E
:100376000008043B040C3868080C163320060404F5
:1003860000008080E030080808080808F080800037
:10039600000F111070107010B010F01171101907C5
:1003A60000C03018082C64C484C4EC281810F0006F
:1003B600000F1830246643434143464E20300F0059
:1003C6000000101010FF10101010FF101010000089
:1003D60000048444241704040404172444840400F9
:1003E600403011969090919690909814135030004A
:1003F600040404040444847E06050404040404007E
:10040600404020205048444344485020204040006B
:10041600000242E2524A464242425262C202000090
:100426008080808080808080808080808080800046
:1004360000000000000000000000000000000000B6
:100446000000E0301808C4C4C4C4C4081870C00052
:1004560000001F302060474747474760301C0300B5
:1004660080804020504844C344485020408080004B
:10047600004040444444447F4444444440400000D7
:1004860040445465464464544440FE0222DA060061
:1004960000007E222222227E0000FF0810080700AC
:1004A600E0380C86C2E3B393818382860C38E00081
:1004B6000718202163474D49414141613118070022
:1004C600048484FC848400FE0202F20202FE000020
:1004D6002060201F109040231806017E8083E000D4
:1004E600080888C8380C0B0808E808080808080037
:1004F600020100FF40414141417F414141414000ED
:10050600404042CC000444645C47F4444444040044
:100516000040201F2044444444447F444444440053
:100526002030AC632018809090FF90494A484000E4
:10053600226722121212404020130C142241F800A6
:1005460080828282FE8282828282FE828282800013
:10055600008040300F0000000000FF000000000097
:100566001010F01F10F00040E05847405060C000E7
:100576004022150816210000FE42424242FE0000BB
:10058600F212FE12FE12F20084848484FC00000043
:10059600FF4A49484949FF003F40404041407000FA
:1005A6000040301E101010FF101010101000000038
:1005B60081814121110D0301030D1121418181002A
:1005C60000FE02FA02FE4020D8171010F0101000AC
:1005D6008047300F106780402116081621408000A2
:1005E60000C070184CC446020242C6440C38E000F3
:1005F600001F2060404650484850464040701F004B
:1006060000E0380C262262C2024664242C1830E030
:10061600001F306040434BD890909BC360301C074E
:100626004042CC0000445454547F54545444400037
:1006360000007F201000FF15151555957F0000005E
:1006460000082848880808FF8808894A2808000002
:10065600001010080442817F0001020408101000F7
:1006660000E038C86424A60302A226C40CB8E00041
:10067600001F30604050585454585060380F0000E6
:100686000008488808C83800901010FF10101000A5
:100696000020100C030418000043807F00000000B7
:1006A600000000FF080808404040FF2022AC200060
:1006B600007F212121217F80402017182641F0004C
:1006C6002030AC632018084848487F48484808004E
:1006D60022672212121200FE4242424242FE0000ED
:1006E6000404E424242424FF24242424E40404000D
:1006F60040402722120A06FF060A1222274040001F
:10070600008060F8074020180F08C808082818005D
:10071600010000FF00100C0340807F000106180056
:1007260000F80C0B0808F840308F080808F800009D
:10073600007F212121217F0000004380403F0000EF
:100746000000F8888888880808FF08090AC8080091
:1007560080601F0010201F80402116182641F800D7
:100766002030AC6310445454547F545454444000D5
:100776002267221212809F41211D21419F00000005
:100786000008488808C83800901010FF10101000A4
:100796000020100C030418000043807F00000000B6
:1007A6000808080808F8898E8888888808080800D4
:1007B60000804020180700004080403F00000000F5
:1007C6000000007F494949494949497F0000000026
:1007D6008141211D214181FF898989898981810082
:1007E600008060F8074020180F08C808082818007D
:1007F600010000FF00100C0340807F000106180076
:100806000202EEAAAAAAAAABAAAAAAAAEA02020007
:10081600807EAAFE00BE423A42BE807E127EE00084
:1008260000020202020202E222120A06020000008E
:10083600000000000040807F000000000000000073
:100846002030AC631000FE485040FF405048000086
:100856002267221212007F4442417F4142444000F7
:100866002030AC6320182024A4243FA424A46000D4
:10087600226722121212888A4C29180F1828C800DB
:100886000414AC47A4140C001CA444A4940C00004B
:100896000189884828190E09094888483801010045
:1008A600001010101010FF1010101010F0000000B3
:1008B6000080402018060100204080403F000000D4
:1008C60000E010080810E000000F102020100F00B4
:1008D60000001010F8000000000020203F2020003B
:1008E600007008080808F000003028242221300093
:1008F60000300808088870000018202121221C00FA
:100906000000804030F8000000060524243F24241F
:1009160000F88888880808000019202020110E0099
:1009260000E0108888900000000F112020201F0092
:1009360000180808886818000000003E0100000042
:100946000070880808887000001C222121221C00E3
:1009560000F008080810E0000001122222110F0022
:1009660000000000E0000000000101010F0101018C
:10097600000000000000000000010101010101006B
:10098600404080F0804040000202010F0102020058
:1009960000000000C03804000060180700000000D6
:1009A60000000000000000000000363600000000D5
:1009B600000038340282C27C000000000037370095
:1009C6000002010202040200000000000000000014
:1009D600F008F0806018000000310C031E211E0094
:1009E6000040C07840C0780000043F04043F040083
:1009F60000008040201008000001020408102000BA
:100A060000081020408000000020100804020100A9
:100A16000000C038E0000000203C230202273820F6
:100A260008F8888888700000203F202020110E00DA
:100A3600C0300808080838000718202020100800D1
:100A460008F808080810E000203F202020100F00BA
:100A560008F88888E8081000203F20202320180086
:100A660008F88888E8081000203F200003000000EE
:100A7600C03008080838000007182020221E02008F
:100A860008F808000008F808203F210101213F204E
:100A9600000808F8080800000020203F2020000079
:100AA60000000808F8080800C08080807F00000069
:100AB60008F888C028180800203F200126382000A2
:100AC60008F8080000000000203F20202020300009
:100AD60008F8F800F8F80800203F013E013F200022
:100AE60008F830C00008F808203F200007183F002B
:100AF600E01008080810E0000F10202020100F005A
:100B060008F808080808F000203F2101010100004C
:100B1600E01008080810E0000F10282830504F0099
:100B260008F8888888887000203F2000030C302051
:100B360000708808080838000038202121221C008F
:100B4600180808F8080818000000203F20000000D8
:100B560008F808000008F808001F202020201F00C1
:100B66000878880000C83808000007380E01000021
:100B760008F800F800F8080000033E013E030000F4
:100B8600081868808068180820302C03032C302051
:100B96000838C800C83808000000203F20000000C0
:100BA60010080808C8380800203826212020180018
:100BB600000080808000000000192424123F2000DD
:100BC60010F0008080000000003F112020110E0070
:100BD6000000008080800000000E112020201100FF
:100BE600000080808090F000001F202020103F2011
:100BF6000000808080800000001F24242424170029
:100C0600008080E0909020000020203F20200000FF
:100C16000000808080808000006B94949493600034
:100C260010F0008080800000203F210000203F203F
:100C360000809898000000000020203F202000003F
:100C4600000000809898000000C08080807F00002F
:100C560010F0000080808000203F2406293020000C
:100C6600001010F8000000000020203F20200000A7
:100C76008080808080808000203F20003F20003FD1
:100C86008080008080800000203F210000203F20DF
:100C96000000808080800000001F202020201F0090
:100CA600808000808000000080FF912020110E00CF
:100CB6000000008080008000000E11202091FF803F
:100CC600808080008080800020203F21200001005D
:100CD60000008080808080000033242424241900B2
:100CE600008080E0808000000000001F20201000AF
:100CF6008080000000808000001F202020103F2000
:100D0600808080008080800000030C300C0300008F
:100D16008080008080008080010E300C073806013C
:100D260000808080008080000020310E2E3120005F
:100D3600808080000080808000818678180601000F
:100D460000808080808080000021302C22213000AD
:10261600C2B6D2B7E4F590C2B4AF90D2B453078035
:09262600EF7003D38001C350EBF7
:01262F002288
:1026D000AE07122616C2B6C2B78E90C2B4D2B422CA
:0626F2004307B80226D0E8
:0626F8004307C00226D0DA
:0F263000AC031226AE53043FAF051226F2AF04DF
:09263F0053073F4307400226D077
:0626FE0043073E0226D056
:05266000F583E493FF87
:10266500AE07122616D2B6C2B78E90C2B4D2B42225
:1026AE00EF14600714600724027005D2B522C2B57C
:0126BE0022F9
:1025D9001226AEE4FDAF051226F2E4FF12263FE40F
:0E25E900FCE4FF1226650CBC40F70DBD08E7B0
:0125F70022C1
:1025B800122616E4FF1226AE1226FEE4FF1226AEFD
:1025C8000F1226FEE4FF1226AE1225D9E4FF0226DA
:0125D800F80A
:1022B200122630E4FBFA75F020E561A42BF582E5E5
:1022C200F03AF583E5822426F582E583340012266E
:1022D200600BBB00010AEB64104A70DAED04FF12D6
:1022E200263AE4FAFB75F020E561A42BF582E5F0CD
:1022F2003AF583E5822436F582E5833400122660BE
:0B2302000BBB00010AEB64104A70DA0C
:01230D0022AD
:10230E00122630E4FBFA75F010E56BA42BF582E58E
:10231E00F03AF583E5822416F582E583340A122617
:10232E00600BBB00010AEB64084A70DAED04FF1281
:10233E00263AE4FAFB75F010E56BA42BF582E5F076
:10234E003AF583E582241EF582E583340A1226606F
:0B235E000BBB00010AEB64084A70DAB8
:012369002251
:10236A00122630E4FBFA75F010E564A42BF582E539
:10237A00F03AF583E58224C6F582E583340812260D
:10238A00600BBB00010AEB64084A70DAED04FF1225
:10239A00263AE4FAFB75F010E564A42BF582E5F021
:1023AA003AF583E58224CEF582E583340812266065
:0B23BA000BBB00010AEB64084A70DA5C
:0123C50022F5
:1023C600122630E4FBFA75F010E564A42BF582E5DD
:1023D600F03AF583E5822466F582E5833409122610
:1023E600600BBB00010AEB64084A70DAED04FF12C9
:1023F600263AE4FAFB75F010E564A42BF582E5F0C5
:102406003AF583E582246EF582E583340912266067
:0B2416000BBB00010AEB64084A70DAFF
:012421002298
:0C24CE00856582856483121B45FF7E003B
:1024DA00C3EF9441EE648094804010D3EF945AEE97
:1024EA00648094805005EF24BF8019C3EF9461EE95
:1024FA00648094804014D3EF947AEE648094805080
:0E250A0009EF24B9FFEE34FFFE22E4FEFF22AB
:081753008D618B5E8A5F8960E5
:10175B00121B2C756200F563E4F564F565F566F50F
:10176B0067D3E5639410E56264809480505D756483
:10177B0000756501D3E5659563E5626480F8E56402
:10178B006480984003021889E5659408E5646480D9
:10179B009480AB5EAA5FA96050131224CE8F6BE5C9
:1017AB00651475F008A4FBAD617F0280111224CE85
:1017BB008F6BE5651475F008A4FBAD617F011223F7
:1017CB000E0565E56570AD056480A97564007565EA
:1017DB0001D3E5659408E56464809480AB5EAA5FF1
:1017EB00A96050131224CE8F6BE5651475F008A415
:1017FB00FBAD617F0280111224CE8F6BE5651475F2
:10180B00F008A4FBAD617F0112230E0565E5657041
:10181B00020564D39410E5646480948040B37564CE
:10182B0000756511D3E5659563E5626480F8E56441
:10183B006480985049E5659418E56464809480ABA6
:10184B005EAA5FA96050161224CE8F6BE56124024D
:10185B00FDE5651475F008A4FB7F0280141224CEFD
:10186B008F6BE5612402FDE5651475F008A4FB7F21
:10187B000112230E0565E56570AA056480A67564E3
:10188B0000756501E5652440AB5EAA5FA9608565BF
:10189B0082856483121B840565E5657002056464AB
:0518AB000E456470DF32
:0118B0002215
:06150E008E5A8F5B8D5C1C
:10151400E4F55DF55EF55FF560D3E55B9400E55AAF
:101524006480948050030215D8EE3395E0FDFC7B73
:10153400007AE179F57805C3121BEE50030215F029
:10154400AE5AAF5BEE3395E0FDFC7B807A967998DA
:101554007800C3121BEE5003021611AE5AAF5BEEB5
:101564003395E0FDFC7B407A42790F7800C3121B6F
:10157400EE5003021632AE5AAF5BEE3395E0FDFC3B
:101584007BA07A8679017800C3121BEE5003021601
:1015940052D3E55B9410E55A648094A74003021685
:1015A40067D3E55B94E8E55A6480948340030216AC
:1015B4007CD3E55B9464E55A64809480400302160E
:1015C40091D3E55B940AE55A648094804003021643
:1015D400A60216AEAE5AAF5BEE3395E0FDFC7B007F
:1015E4007A1F790A78FAD3121BEE4009755F0075E9
:1015F40060090216B4AE5AAF5BEE3395E0FDFC7B96
:10160400807A69796778FFD3121BEE4009755F0011
:101614007560080216B4AE5AAF5BEE3395E0FDFC7C
:101624007BC07ABD79F078FFD3121BEE4008755F5A
:1016340000756007807AAE5AAF5BEE3395E0FDFC2F
:101644007B607A7979FE78FFD3121BEE4008755FD0
:1016540000756006805AC3E55B94F0E55A64809493
:10166400585008755F007560058045C3E55B9418A4
:10167400E55A6480947C5008755F0075600480307E
:10168400C3E55B949CE55A6480947F5008755F00C1
:10169400756003801BC3E55B94F6E55A6480947F10
:1016A4005008755F007560028006755F0075600103
:1016B400C3E55A64809480501DAB5E756401AD5CD3
:1016C4007F021223C6AE5AAF5B7CFF7DFF121BA6BE
:1016D4008E5A8F5B8060D3E55B940AE55A648094EC
:1016E400804060E56024FFFDE55F34FFFC7F0A7EF7
:1016F40000122570AC5AAD5BCFCDCFCECCCE121B31
:10170400B88F64AB5EAD5C7F0212236AE56015603E
:101714007002155FAE5AAF5BC006C007AD60AC5F28
:101724007F0A7E00122570AC06AD07D007D00612E2
:101734001BB88C5A8D5B7408255EF55EE4355DF547
:0F1744005D8093AB5E855B64AD5C7F0202236AC0
:082570008E618F62AB05AA0425
:102578007F017E00D3EB9400EA64809480400EAC27
:0D25880061AD62121BA6EB1B70EA1A80E722
:012595002223
:0A0016007F011225D97F020225D9CF
:03000E00DFFE22F0
:1025F800D3EF9400EE940040147D7B7C00ED1D70B9
:0D260800011CED4C70F7EF1F70E61E80E323
:0126150022A2
:10259600011F00010E000208000102110000020ADC
:1025A6000000010C00C100011E00010D00020F0019
:0125B6000024
:102547007E007401A807088005C333CE33CED8F9BF
:10255700FFED4C700DEFF4FFEEF4FEEF520BEE5271
:082567000A22EF420BEE420ACA
:01256F002249
:05224900FEAF0C7D0357
:10224E00EF25E0FF7E007401A807088005C333CE9A
:10225E0033CED8F9FFED70028008BD01028014BDA7
:10226E00020EEFF4FBEEF4FAEB520BEA520A80097F
:10227E00BD0306EF420BEE420AEF25E0FFEE33FE02
:10228E00ED70028003BD010DEFF4FFEEF4FEEF5290
:10229E000BEE520A22BD02028003BD0306EF420B73
:0322AE00EE420AF3
:0122B100220A
:04251800AF1F7E0073
:04251C00AD07AC0655
:102520007E007401A807088005C333CE33CED8F9E6
:10253000FFE50A5EFEE50B5FA805088006CEA2E770
:0625400013CE13D8F8FFD2
:012546002272
:0221CF00AD075A
:1021D100ED25E0FF7E007401A807088005C333CE1A
:1021E10033CED8F9FBAA06E50A5AFEE50B5BA80532
:1021F100088006CEA2E713CE13D8F84E6025EB2552
:10220100E0FBEA33FA550AFEE50B5BA805088006F8
:10221100CEA2E713CE13D8F84E7E0060037F2822AA
:102221007F1E22EB25E0FBEA33FA550AFEE50B5B44
:10223100A805088006CEA2E713CE13D8F84E7E007B
:0722410060037F14227F0AF5
:012248002273
:10242200750E1712001675612E7B107D037F021246
:1024320022B275612B7B207D037F021222B275616D
:10244200127B307D037F021222B275612CE4FB7D88
:10245200037F011222B275612D7B107D037F011271
:1024620022B275612E7B207D037F011222B275613B
:0A24720021E4FB7D067F020222B286
:081C59007B007A0079137D0283
:101C61008B5A8A5B895C8D5D120016AB5AAA5BA9FF
:101C71005CAD5D12175375610EE4FB7D067F0212A8
:101C810022B275611C7B307D067F011222B2E4F520
:101C91001FE50C14FFE51FC39F4003021D65E51FEF
:101CA10064097024AF1F1221CFEF640A4E600BAF9D
:101CB1001F1221CFEF64144E700575610480037506
:101CC10061327B30E4FD805EE51F64087023AF1F45
:101CD1001221CFEF640A4E600BAF1F1221CFEF64C8
:101CE100144E70057561048003756132E4FBFD805B
:101CF1005AE51FC394044032AF1F1221CFEF640A8B
:101D01004E600BAF1F1221CFEF64144E700DE51F13
:101D1100C454F0FB7561047D04800BE51FC454F0CD
:101D2100FB7561327D047F018032AF1F1221CFEF3D
:101D3100640A4E600BAF1F1221CFEF64144E700F77
:101D4100E51FC454F0FB7561047D047F02800DE53D
:101D51001FC454F0FB7561327D047F021222B2056B
:051D61001F021C92228C
:102675005389F0438901758CFC758A18D2A9D2AFAC
:03268500D28C22D2
:10268800758920758DFD758BFDD28E759850D2ACED
:03269800D2AF229C
:0400060053A8BF221A
:0826EA008F993099FDC299227D
:0618B1007B007A007913B0
:0618B7008B558A5689578B
:1018BD00E4F558F559F51FAB55AA56A957851F8262
:1018CD00758300121B45FEB4FF0AE4F51F7FA112BC
:1018DD0026EA8015AF061226EA7F647E001225F8EF
:1018ED00051FE51FC3940B40CE7F647E001225F8C3
:1018FD00C3E5599403E55864809480502130980DC8
:10190D00C298AF991226EAE59964AC60117FF47E16
:10191D00011225F80559E55970D6055880D2C3E551
:10192D00599403E5586480948040030219FA05091F
:10193D00E50970020508050CC39512E5116480F8E0
:10194D00E5086480985009E50C940850030219E7E6
:10195D007FAB1226EA750800750901E4F50CF51147
:10196D00F512F51FAF1F1221CFEF2512F512EE352F
:10197D0011F511051FE51FD3940740E8AE11AF1205
:10198D007C007D0A121BB88E118F12E4F508F50943
:10199D001200167561377B20E4FD7F021222B275AD
:1019AD0061387B30E4FD7F021222B2756139E4FBB0
:1019BD00FD7F011222B275613A7B10E4FD7F0112A9
:1019CD0022B27D02AF12AE1112150E756121E4FB2C
:1019DD007D067F021222B2750E28E50945086003C7
:1019ED00121C59E50945086007750E1A22122422AA
:0119FD0022C7
:1019FE00E4F555F5567561297B207D037F02122291
:101A0E00B275612A7B307D037F021222B27561307E
:101A1E00E4FB7D037F011222B27561317B107D03E1
:101A2E007F011222B27FAE1226EA7FF47E011225CA
:101A3E00F8751F0330981AE599B4AD0AC29875551A
:101A4E0000755601801BC2987F2C7E011225F8C2AC
:101A5E00987F2C7E011225F8151FE51FD394005098
:101A6E00D3E55645557003021B2875612F7B107DFB
:101A7E00037F021222B27561297B207D037F021241
:101A8E0022B275612A7B307D037F021222B275610C
:101A9E0012E4FB7D037F011222B27561137B107D70
:101AAE00037F011222B275612F7B207D037F01120D
:101ABE0022B2750E167508007509011200167561B1
:101ACE0014E4FBFD7F021222B27561157B10E4FD5A
:101ADE007F021222B27561167B20E4FD7F02122274
:101AEE00B27561177B30E4FD7F021222B27D03AF27
:101AFE0009AE0812150E75610EE4FB7D067F02120B
:101B0E0022B275610F7B307D067F011222B27561A4
:0D1B1E00247B207D067F010222B2122422CA
:011B2B002297
:0E264800AF0C7E0012224E750E197F017E002F
:0A265600EF4E6003D20022C2002202
:0300230002104B7D
:10104B00C0E0C0F0C083C082C0D075D000C000C06B
:10105B0001C002C003C004C005C006C0072098032E
:10106B00021299C29885991EE51E64AE707AE50E40
:10107B006006F460030212991226527FAD1226EA23
:10108B00750A00750B00750C00751F007413251F76
:10109B00F876FF051FE51FB40BF2750E191200163B
:1010AB0075612F7B107D037F021222B27561297B44
:1010BB00207D037F021222B275612A7B307D037F74
:1010CB00021222B2756112E4FB7D037F011222B280
:1010DB007561137B107D037F011222B275612F7B2B
:1010EB00207D037F01021258E51E64AA706BE50E8A
:1010FB00B41A06750E1C0211C9E50EB41B06750E4B
:10110B001D0211C9E50E6420700AAF0CFE7D0212A0
:10111B00224E8012E50EB422087D021226480211DF
:10112B00C9E50EB4211C750E18E4FFFE1226567B82
:10113B00007A007913AF09AE08121E2B1218B102F8
:10114B0011C9AF0C1221CFEF640A4E6009AF0C7EB0
:10115B00007D0212224E0211C9E51E64AD7065E5D9
:10116B000EB41A05750E1E8055E50EB41B05750ED3
:10117B001F804BE50E642070051222498011E50E8D
:10118B00B422077D031226488034E50EB4211B756B
:10119B000E18E4FFFE1226567B007A007913AF0976
:1011AB00AE08121E2B1218B18014AF0C1221CFEF08
:1011BB00640A4E6009AF0C7E007D0212224E12268D
:1011CB0088021299E51E64AB600302125D120016D1
:1011DB00751100751200751F00AF1F1221CFEF257F
:1011EB0012F512EE3511F511051FE51FD3940740CB
:1011FB00E8AE11AF127C007D0A121BB88E118F1254
:10120B00750800750900750E281200167561377B7D
:10121B0020E4FD7F021222B27561387B30E4FD7F42
:10122B00021222B2756139E4FBFD7F011222B27505
:10123B00613A7B10E4FD7F011222B27D02AF12AE48
:10124B001112150E756121E4FB7D067F021222B28D
:10125B00803C300039E50E64197033E51E64A160E3
:10126B0007E50DC394094014C2007FAC1226EA7542
:10127B000D00050C121C59750E1B80127480251E57
:10128B00F51E2480FF7413250DF8A607050DD00756
:10129B00D006D005D004D003D002D001D000D0D0DE
:0912AB00D082D083D0F0D0E032F3
:101EDD008E3E8F3F120016756109E4FBFD7F0212E5
:101EED0022B275610A7B10E4FD7F021222B2756188
:101EFD000B7B20E4FD7F021222B275610C7B30E476
:101F0D00FD7F021222B2E53F453E702975610D7BC2
:101F1D00207D037F021222B27561067B307D037F27
:101F2D00021222B2756107E4FB7D037F011222B21A
:101F3D0075610880277561107B207D037F02122259
:101F4D00B27561127B307D037F021222B27561136F
:101F5D00E4FB7D037F011222B27561117B107D03BD
:101F6D007F011222B275610EE4FB7D067F02122203
:0D1F7D00B275610F7B307D067F010222B23C
:101D6600EF4E7040E50924F6FFE50834FFFED3EF99
:101D76009400EE64809480501DAE11AF127C007DFD
:101D86000A121BB87C007D0A121BA6EF2401F50976
:101D9600E43EF508803074F62509F50974FF350828
:101DA600F5088022740A2509F509E43508F508C303
:101DB600E5099512E5116480F8E508648098400607
:101DC600750800750901120016756114E4FBFD7FA4
:101DD600021222B27561157B10E4FD7F021222B257
:101DE6007561167B20E4FD7F021222B27561177BB6
:101DF60030E4FD7F021222B27D03AF09AE08121550
:101E06000E75610EE4FB7D067F021222B275610F2C
:101E16007B307D067F011222B27561247B207D0610
:051E26007F010222B261
:10202700E4F51FE51FC3950C40030220BEE51F64BE
:10203700097018AF1FFE12251CEF4E600575611A57
:10204700800375611B7B30E4FD8041E51F640870E8
:1020570017AF1FFE12251CEF4E600575611A80032E
:1020670075611BE4FBFD8045E51FC3940440211205
:102077002518EF4E600BE51FC454F0FB75611880FF
:1020870009E51FC454F0FB7561197D047F01801FAA
:10209700122518EF4E600BE51FC454F0FB7561184D
:1020A7008009E51FC454F0FB7561197D047F021296
:0820B70022B2051F02202A22BB
:04247C007F017E005E
:102480008E558F56120016E556640145557003129D
:1024900020277B007A007913AF09AE08121E2B7B30
:1024A000007A0079137D0212175375610EE4FB7DEB
:1024B000067F021222B275611C7B307D067F0112FD
:0E24C00022B27561247B207D067F010222B2CC
:101F8A00E4F555F5561200161220277561207B20BC
:101F9A00E4FD7F021222B275611D7B30E4FD7F02EF
:101FAA001222B275611EE4FBFD7F011222B2756135
:101FBA001F7B10E4FD7F011222B2E4F51FE50C1429
:101FCA00FFE51FC39F5013122518EF4E60080556F0
:101FDA00E55670020555051F80E3E556640A455526
:101FEA00701A7561227B307D027F021222B27561FE
:101FFA0023E4FB7D027F011222B280097D02AF56E3
:10200A00AE5512150E756121E4FB7D067F02122280
:0D201A00B275610F7B307D067F010222B29E
:03000300020D5695
:100D5600C0E0C0F0C083C082C0D075D000C000C063
:100D660001C002C003C004C005C006C007E50E707E
:100D760065120006750E0AFFFE122656120016753B
:100D86006114E4FBFD7F021222B27561157B10E44B
:100D9600FD7F021222B27561167B20E4FD7F0212EE
:100DA60022B27561177B30E4FD7F021222B27D0309
:100DB600AF09AE0812150E75610EE4FB7D067F02C3
:100DC6001222B275610F7B307D067F011222B27549
:100DD60061247B20805AE50EF4705F750E14FFFEC9
:100DE600122656122688120016750A00750B007513
:100DF60061257B207D037F021222B27561267B303E
:100E06007D037F021222B2756127E4FB7D037F0119
:100E16001222B27561287B107D037F011222B27502
:100E26006121E4FB7D067F021222B275610F7B30E1
:100E36007D067F011222B2021030E50EB40A1912A5
:100E46000006750E0BE4FFFE1224800509E5097005
:100E5600020508050C021030E50E640B704630B131
:100E660003021030C3E5099512E5116480F8E50820
:100E76006480985026E50C940A5020E50C24FFFF68
:100E8600E434FFFE7D017C0012254712247C05090F
:100E9600E50970020508050C021030750E0C121FCC
:100EA6008A021030E50E640C6011E50E6414600BC6
:100EB600E50E64176005E50EB42828750E001226A7
:100EC60052750800750901750C00750A00750B004E
:100ED6001226E08E118F12122688E4FFFE121EDD06
:100EE600021030E50EB4161C750E18750C00750A46
:100EF60000750B007B007A007913AF09AE08121E4D
:100F06002B021020E50EB41A107FAA1226EA7E00E4
:100F160012224A750E20021030E50EB41B147FAA69
:100F26001226EA750E22AF0C7E007D0312224E02B7
:100F36001030E50E641C7038AF0CFE7D0112224E97
:100F4600E50E20E0687FAA1226EA7F2C7E01122594
:100F5600F8750E18E4FFFE1226567B007A00791308
:100F6600AF09AE08121E2B7B007A007913021020FF
:100F7600E50E641D7039AF0CFE7D0112224EE50EA2
:100F860020E02A7FAA1226EA7F2C7E011225F87518
:100F96000E18E4FFFE1226567B007A007913AF097D
:100FA600AE08121E2B7B007A007913806D8070E5E7
:100FB6000E641E702F122249E50E20E0257F2C7E3E
:100FC600011225F8750E18E4FFFE1226567B007AEC
:100FD600007913AF09AE08121E2B7B007A00791335
:100FE6008038803BE50E641F7040122249E50E20D2
:100FF600E02D7FAA1226EA7F2C7E011225F8750EB7
:1010060018E4FFFE1226567B007A007913AF09AE6C
:1010160008121E2B7B007A0079131218B7800B7505
:101026000E197FAA1226EA122652D007D006D0053C
:10103600D004D003D002D001D000D0D0D082D0834B
:05104600D0F0D0E03203
:03000B0002269B2F
:10269B00C0E0758CFC758A180510E5107002050FEB
:0326AB00D0E0324A
:030013000212B422
:1012B400C0E0C0F0C083C082C0D075D000C000C000
:1012C40001C002C003C004C005C006C007E50E602B
:1012D40006F46003021359E50EF4703975610D7B51
:1012E400207D037F021222B27561067B307D037F6D
:1012F400021222B2756107E4FB7D037F011222B260
:101304007561087B107D037F011222B2750E0012F5
:1013140000060214F3E50E60030214F37561107BFA
:10132400207D037F021222B27561127B307D037F20
:10133400021222B2756113E4FB7D037F011222B213
:101344007561117B107D037F011222B2750EFF12AD
:1013540026880214F3E50E640A6005E50EB416123D
:1013640020B1067F017E008003E4FFFE121D6602A9
:1013740014F3E50E640B706320B13FE50C24FFFF0A
:10138400E434FFFEE4FDFC122547C3E5099512E5AC
:10139400116480F8E5086480985016E50C940A50AE
:1013A4001012247C0509E50970020508050C0214D5
:1013B400F3750E0C121F8A0214F320B1030214F306
:1013C400E50C14D3940050030214F3E509150970D5
:1013D400021508150C12247C0214F3E50E640C703B
:1013E4006AE509150970021508750C00750A00757F
:1013F4000B00750E0A120016756114E4FBFD7F02E2
:101404001222B27561157B10E4FD7F021222B275BF
:1014140061167B20E4FD7F021222B27561177B30D6
:10142400E4FD7F021222B27D03AF09AE0812150E4D
:1014340075610EE4FB7D067F021222B275610F7B9B
:10144400307D067F011222B20214F3E50E6414709B
:10145400387561297B207D037F021222B275612ACF
:101464007B307D037F021222B275612BE4FB7D0386
:101474007F011222B27561127B107D037F0112225B
:10148400B2750E151219FE8066E50EB41A137FADFF
:101494001226EAAF0C7E00E4FD12224E750E218066
:1014A4004EE50EB41B107FAD1226EAAF0C7E00E4AD
:1014B400FD12264C8039E50EC3941C4032E50ED350
:1014C400941F502B7FAD1226EAAF0C7E00E4FD1270
:1014D400224EE50E20E015750E187B007A00791374
:1014E400AF09AE08121E2B1218B18003750E19D065
:1014F40007D006D005D004D003D002D001D000D04C
:0A150400D0D082D083D0F0D0E032C6
:10214B00D288D2A8D28AD2AAD2AFE4F51F741325B3
:10215B001FF876FF051FE51FB40BF21226E08E1158
:10216B008F121200167561047B107D037F02122201
:10217B00B2E4F5617B207D037F021222B27561010F
:10218B007B307D037F021222B2756102E4FB7D037B
:10219B007F011222B27561037B107D037F01122236
:1021AB00B27561047B207D037F011222B27FE87E32
:1021BB00031225F8122675122688E4F50EFFFE127F
:0421CB001EDD80FE97
:1026BF0053067FD2A78F808EA0C2A77580FFAF80F1
:0126CF0022E8
:0A26E0007F017E101226BF7E00224B
:0A1E2B008B578A5889598F828E83E5
:101E3500E4F55AF55B7B027A101226E0FC7D03126D
:101E45001BA6EF2BF55DEE3AF55CE58224FFFFE579
:101E55008334FFFE121BA6EF2BFFEE3AAD07FCFE07
:101E65001226BF755E008F5FED2401FFE43CFE1274
:101E750026BFAB07E55FF560EBF561ED2402FFE4F6
:101E85003CFE1226BF7562008F63AB57AA58A9594D
:101E9500EF121B72E4F55AF55BC3E55B9563E562EA
:101EA5006480F8E55A648098502DE561255BFFE56F
:101EB50060355AFE1226BFAB57AA58A959E55B24CF
:101EC50001FDE4355A8D82F583EF121B84055BE530
:071ED5005B70C6055A80C2D4
:011EDC0022E3
:1020CB0002214BE493A3F8E493A34003F68001F2BF
:1020DB0008DFF48029E493A3F85407240CC8C33316
:1020EB00C4540F4420C8834004F456800146F6DFE5
:1020FB00E4800B0102040810204080902596E47EBA
:10210B00019360BCA3FF543F30E509541FFEE493D9
:10211B00A360010ECF54C025E060A840B8E493A3A0
:10212B00FAE493A3F8E493A3C8C582C8CAC583CACB
:10213B00F0A3C8C582C8CAC583CADFE9DEE780BE83
:0125B7000023
:101B2C00BB010689828A83E0225002E722BBFE02B7
:091B3C00E32289828A83E49322EA
:101B4500BB010CE58229F582E5833AF583E0225055
:101B550006E92582F8E622BBFE06E92582F8E2229F
:0D1B6500E58229F582E5833AF583E49322B9
:101B7200BB010689828A83F0225002F722BBFE0152
:021B8200F3224C
:101B8400F8BB010DE58229F582E5833AF583E8F097
:101B9400225006E92582C8F622BBFE05E92582C843
:021BA400F2222B
:101BA600EF8DF0A4A8F0CF8CF0A428CE8DF0A42E53
:021BB600FE220D
:101BB800C2D5EC30E709B2D5E4C39DFDE49CFCEE48
:101BC80030E715B2D5E4C39FFFE49EFE121C04C3A0
:101BD800E49DFDE49CFC8003121C0430D507C3E49B
:061BE8009FFFE49EFE22B7
:101BEE00EB9FF5F0EA9E42F0E99D42F0EC6480C86E
:061BFE0064809845F0220E
:101C0400BC000BBE0029EF8DF084FFADF022E4CCC4
:101C1400F875F008EF2FFFEE33FEEC33FCEE9DEC8D
:101C2400984005FCEE9DFE0FD5F0E9E4CEFD22EDD3
:101C3400F8F5F0EE8420D21CFEADF075F008EF2F1D
:101C4400FFED33FD4007985006D5F0F222C398FD0E
:051C54000FD5F0EA22AB
:00000001FF
